{
  "address": "0xB7f8BC63BbcaD18155201308C8f3540b07f84F5e",
  "abi": [
    {
      "inputs": [
        {
          "internalType": "string",
          "name": "uri",
          "type": "string"
        }
      ],
      "stateMutability": "nonpayable",
      "type": "constructor"
    },
    {
      "anonymous": false,
      "inputs": [
        {
          "indexed": true,
          "internalType": "address",
          "name": "account",
          "type": "address"
        },
        {
          "indexed": true,
          "internalType": "address",
          "name": "operator",
          "type": "address"
        },
        {
          "indexed": false,
          "internalType": "bool",
          "name": "approved",
          "type": "bool"
        }
      ],
      "name": "ApprovalForAll",
      "type": "event"
    },
    {
      "anonymous": false,
      "inputs": [
        {
          "indexed": true,
          "internalType": "address",
          "name": "previousOwner",
          "type": "address"
        },
        {
          "indexed": true,
          "internalType": "address",
          "name": "newOwner",
          "type": "address"
        }
      ],
      "name": "OwnershipTransferred",
      "type": "event"
    },
    {
      "anonymous": false,
      "inputs": [
        {
          "indexed": true,
          "internalType": "address",
          "name": "operator",
          "type": "address"
        },
        {
          "indexed": true,
          "internalType": "address",
          "name": "from",
          "type": "address"
        },
        {
          "indexed": true,
          "internalType": "address",
          "name": "to",
          "type": "address"
        },
        {
          "indexed": false,
          "internalType": "uint256[]",
          "name": "ids",
          "type": "uint256[]"
        },
        {
          "indexed": false,
          "internalType": "uint256[]",
          "name": "values",
          "type": "uint256[]"
        }
      ],
      "name": "TransferBatch",
      "type": "event"
    },
    {
      "anonymous": false,
      "inputs": [
        {
          "indexed": true,
          "internalType": "address",
          "name": "operator",
          "type": "address"
        },
        {
          "indexed": true,
          "internalType": "address",
          "name": "from",
          "type": "address"
        },
        {
          "indexed": true,
          "internalType": "address",
          "name": "to",
          "type": "address"
        },
        {
          "indexed": false,
          "internalType": "uint256",
          "name": "id",
          "type": "uint256"
        },
        {
          "indexed": false,
          "internalType": "uint256",
          "name": "value",
          "type": "uint256"
        }
      ],
      "name": "TransferSingle",
      "type": "event"
    },
    {
      "anonymous": false,
      "inputs": [
        {
          "indexed": false,
          "internalType": "string",
          "name": "value",
          "type": "string"
        },
        {
          "indexed": true,
          "internalType": "uint256",
          "name": "id",
          "type": "uint256"
        }
      ],
      "name": "URI",
      "type": "event"
    },
    {
      "inputs": [
        {
          "internalType": "address",
          "name": "account",
          "type": "address"
        },
        {
          "internalType": "uint256",
          "name": "id",
          "type": "uint256"
        }
      ],
      "name": "balanceOf",
      "outputs": [
        {
          "internalType": "uint256",
          "name": "",
          "type": "uint256"
        }
      ],
      "stateMutability": "view",
      "type": "function"
    },
    {
      "inputs": [
        {
          "internalType": "address[]",
          "name": "accounts",
          "type": "address[]"
        },
        {
          "internalType": "uint256[]",
          "name": "ids",
          "type": "uint256[]"
        }
      ],
      "name": "balanceOfBatch",
      "outputs": [
        {
          "internalType": "uint256[]",
          "name": "",
          "type": "uint256[]"
        }
      ],
      "stateMutability": "view",
      "type": "function"
    },
    {
      "inputs": [
        {
          "internalType": "address",
          "name": "owner",
          "type": "address"
        },
        {
          "internalType": "uint256",
          "name": "id",
          "type": "uint256"
        },
        {
          "internalType": "uint256",
          "name": "value",
          "type": "uint256"
        }
      ],
      "name": "burn",
      "outputs": [],
      "stateMutability": "nonpayable",
      "type": "function"
    },
    {
      "inputs": [
        {
          "internalType": "address",
          "name": "owner",
          "type": "address"
        },
        {
          "internalType": "uint256[]",
          "name": "ids",
          "type": "uint256[]"
        },
        {
          "internalType": "uint256[]",
          "name": "values",
          "type": "uint256[]"
        }
      ],
      "name": "burnBatch",
      "outputs": [],
      "stateMutability": "nonpayable",
      "type": "function"
    },
    {
      "inputs": [
        {
          "internalType": "address",
          "name": "account",
          "type": "address"
        },
        {
          "internalType": "address",
          "name": "operator",
          "type": "address"
        }
      ],
      "name": "isApprovedForAll",
      "outputs": [
        {
          "internalType": "bool",
          "name": "",
          "type": "bool"
        }
      ],
      "stateMutability": "view",
      "type": "function"
    },
    {
      "inputs": [
        {
          "internalType": "address",
          "name": "to",
          "type": "address"
        },
        {
          "internalType": "uint256",
          "name": "id",
          "type": "uint256"
        },
        {
          "internalType": "uint256",
          "name": "value",
          "type": "uint256"
        },
        {
          "internalType": "bytes",
          "name": "data",
          "type": "bytes"
        }
      ],
      "name": "mint",
      "outputs": [],
      "stateMutability": "nonpayable",
      "type": "function"
    },
    {
      "inputs": [
        {
          "internalType": "address",
          "name": "to",
          "type": "address"
        },
        {
          "internalType": "uint256[]",
          "name": "ids",
          "type": "uint256[]"
        },
        {
          "internalType": "uint256[]",
          "name": "values",
          "type": "uint256[]"
        },
        {
          "internalType": "bytes",
          "name": "data",
          "type": "bytes"
        }
      ],
      "name": "mintBatch",
      "outputs": [],
      "stateMutability": "nonpayable",
      "type": "function"
    },
    {
      "inputs": [],
      "name": "owner",
      "outputs": [
        {
          "internalType": "address",
          "name": "",
          "type": "address"
        }
      ],
      "stateMutability": "view",
      "type": "function"
    },
    {
      "inputs": [],
      "name": "renounceOwnership",
      "outputs": [],
      "stateMutability": "nonpayable",
      "type": "function"
    },
    {
      "inputs": [
        {
          "internalType": "address",
          "name": "from",
          "type": "address"
        },
        {
          "internalType": "address",
          "name": "to",
          "type": "address"
        },
        {
          "internalType": "uint256[]",
          "name": "ids",
          "type": "uint256[]"
        },
        {
          "internalType": "uint256[]",
          "name": "amounts",
          "type": "uint256[]"
        },
        {
          "internalType": "bytes",
          "name": "data",
          "type": "bytes"
        }
      ],
      "name": "safeBatchTransferFrom",
      "outputs": [],
      "stateMutability": "nonpayable",
      "type": "function"
    },
    {
      "inputs": [
        {
          "internalType": "address",
          "name": "from",
          "type": "address"
        },
        {
          "internalType": "address",
          "name": "to",
          "type": "address"
        },
        {
          "internalType": "uint256",
          "name": "id",
          "type": "uint256"
        },
        {
          "internalType": "uint256",
          "name": "amount",
          "type": "uint256"
        },
        {
          "internalType": "bytes",
          "name": "data",
          "type": "bytes"
        }
      ],
      "name": "safeTransferFrom",
      "outputs": [],
      "stateMutability": "nonpayable",
      "type": "function"
    },
    {
      "inputs": [
        {
          "internalType": "address",
          "name": "operator",
          "type": "address"
        },
        {
          "internalType": "bool",
          "name": "approved",
          "type": "bool"
        }
      ],
      "name": "setApprovalForAll",
      "outputs": [],
      "stateMutability": "nonpayable",
      "type": "function"
    },
    {
      "inputs": [
        {
          "internalType": "string",
          "name": "newuri",
          "type": "string"
        }
      ],
      "name": "setURI",
      "outputs": [],
      "stateMutability": "nonpayable",
      "type": "function"
    },
    {
      "inputs": [
        {
          "internalType": "bytes4",
          "name": "interfaceId",
          "type": "bytes4"
        }
      ],
      "name": "supportsInterface",
      "outputs": [
        {
          "internalType": "bool",
          "name": "",
          "type": "bool"
        }
      ],
      "stateMutability": "view",
      "type": "function"
    },
    {
      "inputs": [
        {
          "internalType": "address",
          "name": "newOwner",
          "type": "address"
        }
      ],
      "name": "transferOwnership",
      "outputs": [],
      "stateMutability": "nonpayable",
      "type": "function"
    },
    {
      "inputs": [
        {
          "internalType": "uint256",
          "name": "",
          "type": "uint256"
        }
      ],
      "name": "uri",
      "outputs": [
        {
          "internalType": "string",
          "name": "",
          "type": "string"
        }
      ],
      "stateMutability": "view",
      "type": "function"
    }
  ],
  "transactionHash": "0x391407c419aa669ddd376f81e8b19c4a3910398b615e44ba50744b3dc1dd7009",
  "args": [
    "www.google.com"
  ],
  "numDeployments": 1,
  "solcInputHash": "84ead359928f625c8ce3eb3654c8e1b9",
  "bytecode": "0x60806040523480156200001157600080fd5b5060405162003e0938038062003e098339818101604052810190620000379190620003a8565b8062000049816200007160201b60201c565b506200006a6200005e6200008d60201b60201c565b6200009560201b60201c565b506200045e565b8060029080519060200190620000899291906200015b565b5050565b600033905090565b6000600360009054906101000a900473ffffffffffffffffffffffffffffffffffffffff16905081600360006101000a81548173ffffffffffffffffffffffffffffffffffffffff021916908373ffffffffffffffffffffffffffffffffffffffff1602179055508173ffffffffffffffffffffffffffffffffffffffff168173ffffffffffffffffffffffffffffffffffffffff167f8be0079c531659141344cd1fd0a4f28419497f9722a3daafe3b4186f6b6457e060405160405180910390a35050565b828054620001699062000428565b90600052602060002090601f0160209004810192826200018d5760008555620001d9565b82601f10620001a857805160ff1916838001178555620001d9565b82800160010185558215620001d9579182015b82811115620001d8578251825591602001919060010190620001bb565b5b509050620001e89190620001ec565b5090565b5b8082111562000207576000816000905550600101620001ed565b5090565b6000604051905090565b600080fd5b600080fd5b600080fd5b600080fd5b6000601f19601f8301169050919050565b7f4e487b7100000000000000000000000000000000000000000000000000000000600052604160045260246000fd5b620002748262000229565b810181811067ffffffffffffffff821117156200029657620002956200023a565b5b80604052505050565b6000620002ab6200020b565b9050620002b9828262000269565b919050565b600067ffffffffffffffff821115620002dc57620002db6200023a565b5b620002e78262000229565b9050602081019050919050565b60005b8381101562000314578082015181840152602081019050620002f7565b8381111562000324576000848401525b50505050565b6000620003416200033b84620002be565b6200029f565b90508281526020810184848401111562000360576200035f62000224565b5b6200036d848285620002f4565b509392505050565b600082601f8301126200038d576200038c6200021f565b5b81516200039f8482602086016200032a565b91505092915050565b600060208284031215620003c157620003c062000215565b5b600082015167ffffffffffffffff811115620003e257620003e16200021a565b5b620003f08482850162000375565b91505092915050565b7f4e487b7100000000000000000000000000000000000000000000000000000000600052602260045260246000fd5b600060028204905060018216806200044157607f821691505b60208210811415620004585762000457620003f9565b5b50919050565b61399b806200046e6000396000f3fe608060405234801561001057600080fd5b50600436106100ff5760003560e01c8063715018a611610097578063e985e9c511610066578063e985e9c514610294578063f242432a146102c4578063f2fde38b146102e0578063f5298aca146102fc576100ff565b8063715018a614610234578063731133e91461023e5780638da5cb5b1461025a578063a22cb46514610278576100ff565b80631f7fdffa116100d35780631f7fdffa146101b05780632eb2c2d6146101cc5780634e1273f4146101e85780636b20c45414610218576100ff565b8062fdd58e1461010457806301ffc9a71461013457806302fe5305146101645780630e89341c14610180575b600080fd5b61011e6004803603810190610119919061218d565b610318565b60405161012b91906121dc565b60405180910390f35b61014e6004803603810190610149919061224f565b6103e1565b60405161015b9190612297565b60405180910390f35b61017e600480360381019061017991906123f8565b6104c3565b005b61019a60048036038101906101959190612441565b6104cf565b6040516101a791906124f6565b60405180910390f35b6101ca60048036038101906101c59190612681565b610563565b005b6101e660048036038101906101e1919061273c565b610575565b005b61020260048036038101906101fd91906128ce565b610616565b60405161020f9190612a04565b60405180910390f35b610232600480360381019061022d9190612a26565b61072f565b005b61023c61073f565b005b61025860048036038101906102539190612ab1565b6107c7565b005b6102626107d9565b60405161026f9190612b43565b60405180910390f35b610292600480360381019061028d9190612b8a565b610803565b005b6102ae60048036038101906102a99190612bca565b610819565b6040516102bb9190612297565b60405180910390f35b6102de60048036038101906102d99190612c0a565b6108ad565b005b6102fa60048036038101906102f59190612ca1565b61094e565b005b61031660048036038101906103119190612cce565b610a46565b005b60008073ffffffffffffffffffffffffffffffffffffffff168373ffffffffffffffffffffffffffffffffffffffff161415610389576040517f08c379a000000000000000000000000000000000000000000000000000000000815260040161038090612d93565b60405180910390fd5b60008083815260200190815260200160002060008473ffffffffffffffffffffffffffffffffffffffff1673ffffffffffffffffffffffffffffffffffffffff16815260200190815260200160002054905092915050565b60007fd9b67a26000000000000000000000000000000000000000000000000000000007bffffffffffffffffffffffffffffffffffffffffffffffffffffffff1916827bffffffffffffffffffffffffffffffffffffffffffffffffffffffff191614806104ac57507f0e89341c000000000000000000000000000000000000000000000000000000007bffffffffffffffffffffffffffffffffffffffffffffffffffffffff1916827bffffffffffffffffffffffffffffffffffffffffffffffffffffffff1916145b806104bc57506104bb82610a56565b5b9050919050565b6104cc81610ac0565b50565b6060600280546104de90612de2565b80601f016020809104026020016040519081016040528092919081815260200182805461050a90612de2565b80156105575780601f1061052c57610100808354040283529160200191610557565b820191906000526020600020905b81548152906001019060200180831161053a57829003601f168201915b50505050509050919050565b61056f84848484610ada565b50505050565b61057d610d07565b73ffffffffffffffffffffffffffffffffffffffff168573ffffffffffffffffffffffffffffffffffffffff1614806105c357506105c2856105bd610d07565b610819565b5b610602576040517f08c379a00000000000000000000000000000000000000000000000000000000081526004016105f990612e86565b60405180910390fd5b61060f8585858585610d0f565b5050505050565b6060815183511461065c576040517f08c379a000000000000000000000000000000000000000000000000000000000815260040161065390612f18565b60405180910390fd5b6000835167ffffffffffffffff811115610679576106786122cd565b5b6040519080825280602002602001820160405280156106a75781602001602082028036833780820191505090505b50905060005b8451811015610724576106f48582815181106106cc576106cb612f38565b5b60200260200101518583815181106106e7576106e6612f38565b5b6020026020010151610318565b82828151811061070757610706612f38565b5b6020026020010181815250508061071d90612f96565b90506106ad565b508091505092915050565b61073a838383611031565b505050565b610747610d07565b73ffffffffffffffffffffffffffffffffffffffff166107656107d9565b73ffffffffffffffffffffffffffffffffffffffff16146107bb576040517f08c379a00000000000000000000000000000000000000000000000000000000081526004016107b29061302b565b60405180910390fd5b6107c56000611300565b565b6107d3848484846113c6565b50505050565b6000600360009054906101000a900473ffffffffffffffffffffffffffffffffffffffff16905090565b61081561080e610d07565b8383611577565b5050565b6000600160008473ffffffffffffffffffffffffffffffffffffffff1673ffffffffffffffffffffffffffffffffffffffff16815260200190815260200160002060008373ffffffffffffffffffffffffffffffffffffffff1673ffffffffffffffffffffffffffffffffffffffff16815260200190815260200160002060009054906101000a900460ff16905092915050565b6108b5610d07565b73ffffffffffffffffffffffffffffffffffffffff168573ffffffffffffffffffffffffffffffffffffffff1614806108fb57506108fa856108f5610d07565b610819565b5b61093a576040517f08c379a0000000000000000000000000000000000000000000000000000000008152600401610931906130bd565b60405180910390fd5b61094785858585856116e4565b5050505050565b610956610d07565b73ffffffffffffffffffffffffffffffffffffffff166109746107d9565b73ffffffffffffffffffffffffffffffffffffffff16146109ca576040517f08c379a00000000000000000000000000000000000000000000000000000000081526004016109c19061302b565b60405180910390fd5b600073ffffffffffffffffffffffffffffffffffffffff168173ffffffffffffffffffffffffffffffffffffffff161415610a3a576040517f08c379a0000000000000000000000000000000000000000000000000000000008152600401610a319061314f565b60405180910390fd5b610a4381611300565b50565b610a51838383611980565b505050565b60007f01ffc9a7000000000000000000000000000000000000000000000000000000007bffffffffffffffffffffffffffffffffffffffffffffffffffffffff1916827bffffffffffffffffffffffffffffffffffffffffffffffffffffffff1916149050919050565b8060029080519060200190610ad6929190612042565b5050565b600073ffffffffffffffffffffffffffffffffffffffff168473ffffffffffffffffffffffffffffffffffffffff161415610b4a576040517f08c379a0000000000000000000000000000000000000000000000000000000008152600401610b41906131e1565b60405180910390fd5b8151835114610b8e576040517f08c379a0000000000000000000000000000000000000000000000000000000008152600401610b8590613273565b60405180910390fd5b6000610b98610d07565b9050610ba981600087878787611bc7565b60005b8451811015610c6257838181518110610bc857610bc7612f38565b5b6020026020010151600080878481518110610be657610be5612f38565b5b6020026020010151815260200190815260200160002060008873ffffffffffffffffffffffffffffffffffffffff1673ffffffffffffffffffffffffffffffffffffffff1681526020019081526020016000206000828254610c489190613293565b925050819055508080610c5a90612f96565b915050610bac565b508473ffffffffffffffffffffffffffffffffffffffff16600073ffffffffffffffffffffffffffffffffffffffff168273ffffffffffffffffffffffffffffffffffffffff167f4a39dc06d4c0dbc64b70af90fd698a233a518aa5d07e595d983b8c0526c8f7fb8787604051610cda9291906132e9565b60405180910390a4610cf181600087878787611bcf565b610d0081600087878787611bd7565b5050505050565b600033905090565b8151835114610d53576040517f08c379a0000000000000000000000000000000000000000000000000000000008152600401610d4a90613273565b60405180910390fd5b600073ffffffffffffffffffffffffffffffffffffffff168473ffffffffffffffffffffffffffffffffffffffff161415610dc3576040517f08c379a0000000000000000000000000000000000000000000000000000000008152600401610dba90613392565b60405180910390fd5b6000610dcd610d07565b9050610ddd818787878787611bc7565b60005b8451811015610f8e576000858281518110610dfe57610dfd612f38565b5b602002602001015190506000858381518110610e1d57610e1c612f38565b5b60200260200101519050600080600084815260200190815260200160002060008b73ffffffffffffffffffffffffffffffffffffffff1673ffffffffffffffffffffffffffffffffffffffff16815260200190815260200160002054905081811015610ebe576040517f08c379a0000000000000000000000000000000000000000000000000000000008152600401610eb590613424565b60405180910390fd5b81810360008085815260200190815260200160002060008c73ffffffffffffffffffffffffffffffffffffffff1673ffffffffffffffffffffffffffffffffffffffff168152602001908152602001600020819055508160008085815260200190815260200160002060008b73ffffffffffffffffffffffffffffffffffffffff1673ffffffffffffffffffffffffffffffffffffffff1681526020019081526020016000206000828254610f739190613293565b9250508190555050505080610f8790612f96565b9050610de0565b508473ffffffffffffffffffffffffffffffffffffffff168673ffffffffffffffffffffffffffffffffffffffff168273ffffffffffffffffffffffffffffffffffffffff167f4a39dc06d4c0dbc64b70af90fd698a233a518aa5d07e595d983b8c0526c8f7fb87876040516110059291906132e9565b60405180910390a461101b818787878787611bcf565b611029818787878787611bd7565b505050505050565b600073ffffffffffffffffffffffffffffffffffffffff168373ffffffffffffffffffffffffffffffffffffffff1614156110a1576040517f08c379a0000000000000000000000000000000000000000000000000000000008152600401611098906134b6565b60405180910390fd5b80518251146110e5576040517f08c379a00000000000000000000000000000000000000000000000000000000081526004016110dc90613273565b60405180910390fd5b60006110ef610d07565b905061110f81856000868660405180602001604052806000815250611bc7565b60005b835181101561125c5760008482815181106111305761112f612f38565b5b60200260200101519050600084838151811061114f5761114e612f38565b5b60200260200101519050600080600084815260200190815260200160002060008973ffffffffffffffffffffffffffffffffffffffff1673ffffffffffffffffffffffffffffffffffffffff168152602001908152602001600020549050818110156111f0576040517f08c379a00000000000000000000000000000000000000000000000000000000081526004016111e790613548565b60405180910390fd5b81810360008085815260200190815260200160002060008a73ffffffffffffffffffffffffffffffffffffffff1673ffffffffffffffffffffffffffffffffffffffff16815260200190815260200160002081905550505050808061125490612f96565b915050611112565b50600073ffffffffffffffffffffffffffffffffffffffff168473ffffffffffffffffffffffffffffffffffffffff168273ffffffffffffffffffffffffffffffffffffffff167f4a39dc06d4c0dbc64b70af90fd698a233a518aa5d07e595d983b8c0526c8f7fb86866040516112d49291906132e9565b60405180910390a46112fa81856000868660405180602001604052806000815250611bcf565b50505050565b6000600360009054906101000a900473ffffffffffffffffffffffffffffffffffffffff16905081600360006101000a81548173ffffffffffffffffffffffffffffffffffffffff021916908373ffffffffffffffffffffffffffffffffffffffff1602179055508173ffffffffffffffffffffffffffffffffffffffff168173ffffffffffffffffffffffffffffffffffffffff167f8be0079c531659141344cd1fd0a4f28419497f9722a3daafe3b4186f6b6457e060405160405180910390a35050565b600073ffffffffffffffffffffffffffffffffffffffff168473ffffffffffffffffffffffffffffffffffffffff161415611436576040517f08c379a000000000000000000000000000000000000000000000000000000000815260040161142d906131e1565b60405180910390fd5b6000611440610d07565b9050600061144d85611dbe565b9050600061145a85611dbe565b905061146b83600089858589611bc7565b8460008088815260200190815260200160002060008973ffffffffffffffffffffffffffffffffffffffff1673ffffffffffffffffffffffffffffffffffffffff16815260200190815260200160002060008282546114ca9190613293565b925050819055508673ffffffffffffffffffffffffffffffffffffffff16600073ffffffffffffffffffffffffffffffffffffffff168473ffffffffffffffffffffffffffffffffffffffff167fc3d58168c5ae7397731d063d5bbf3d657854427343f4c083240f7aacaa2d0f628989604051611548929190613568565b60405180910390a461155f83600089858589611bcf565b61156e83600089898989611e38565b50505050505050565b8173ffffffffffffffffffffffffffffffffffffffff168373ffffffffffffffffffffffffffffffffffffffff1614156115e6576040517f08c379a00000000000000000000000000000000000000000000000000000000081526004016115dd90613603565b60405180910390fd5b80600160008573ffffffffffffffffffffffffffffffffffffffff1673ffffffffffffffffffffffffffffffffffffffff16815260200190815260200160002060008473ffffffffffffffffffffffffffffffffffffffff1673ffffffffffffffffffffffffffffffffffffffff16815260200190815260200160002060006101000a81548160ff0219169083151502179055508173ffffffffffffffffffffffffffffffffffffffff168373ffffffffffffffffffffffffffffffffffffffff167f17307eab39ab6107e8899845ad3d59bd9653f200f220920489ca2b5937696c31836040516116d79190612297565b60405180910390a3505050565b600073ffffffffffffffffffffffffffffffffffffffff168473ffffffffffffffffffffffffffffffffffffffff161415611754576040517f08c379a000000000000000000000000000000000000000000000000000000000815260040161174b90613392565b60405180910390fd5b600061175e610d07565b9050600061176b85611dbe565b9050600061177885611dbe565b9050611788838989858589611bc7565b600080600088815260200190815260200160002060008a73ffffffffffffffffffffffffffffffffffffffff1673ffffffffffffffffffffffffffffffffffffffff1681526020019081526020016000205490508581101561181f576040517f08c379a000000000000000000000000000000000000000000000000000000000815260040161181690613424565b60405180910390fd5b85810360008089815260200190815260200160002060008b73ffffffffffffffffffffffffffffffffffffffff1673ffffffffffffffffffffffffffffffffffffffff168152602001908152602001600020819055508560008089815260200190815260200160002060008a73ffffffffffffffffffffffffffffffffffffffff1673ffffffffffffffffffffffffffffffffffffffff16815260200190815260200160002060008282546118d49190613293565b925050819055508773ffffffffffffffffffffffffffffffffffffffff168973ffffffffffffffffffffffffffffffffffffffff168573ffffffffffffffffffffffffffffffffffffffff167fc3d58168c5ae7397731d063d5bbf3d657854427343f4c083240f7aacaa2d0f628a8a604051611951929190613568565b60405180910390a4611967848a8a86868a611bcf565b611975848a8a8a8a8a611e38565b505050505050505050565b600073ffffffffffffffffffffffffffffffffffffffff168373ffffffffffffffffffffffffffffffffffffffff1614156119f0576040517f08c379a00000000000000000000000000000000000000000000000000000000081526004016119e7906134b6565b60405180910390fd5b60006119fa610d07565b90506000611a0784611dbe565b90506000611a1484611dbe565b9050611a3483876000858560405180602001604052806000815250611bc7565b600080600087815260200190815260200160002060008873ffffffffffffffffffffffffffffffffffffffff1673ffffffffffffffffffffffffffffffffffffffff16815260200190815260200160002054905084811015611acb576040517f08c379a0000000000000000000000000000000000000000000000000000000008152600401611ac290613548565b60405180910390fd5b84810360008088815260200190815260200160002060008973ffffffffffffffffffffffffffffffffffffffff1673ffffffffffffffffffffffffffffffffffffffff16815260200190815260200160002081905550600073ffffffffffffffffffffffffffffffffffffffff168773ffffffffffffffffffffffffffffffffffffffff168573ffffffffffffffffffffffffffffffffffffffff167fc3d58168c5ae7397731d063d5bbf3d657854427343f4c083240f7aacaa2d0f628989604051611b98929190613568565b60405180910390a4611bbe84886000868660405180602001604052806000815250611bcf565b50505050505050565b505050505050565b505050505050565b611bf68473ffffffffffffffffffffffffffffffffffffffff1661201f565b15611db6578373ffffffffffffffffffffffffffffffffffffffff1663bc197c8187878686866040518663ffffffff1660e01b8152600401611c3c959493929190613678565b602060405180830381600087803b158015611c5657600080fd5b505af1925050508015611c8757506040513d601f19601f82011682018060405250810190611c8491906136f5565b60015b611d2d57611c9361372f565b806308c379a01415611cf05750611ca8613751565b80611cb35750611cf2565b806040517f08c379a0000000000000000000000000000000000000000000000000000000008152600401611ce791906124f6565b60405180910390fd5b505b6040517f08c379a0000000000000000000000000000000000000000000000000000000008152600401611d2490613859565b60405180910390fd5b63bc197c8160e01b7bffffffffffffffffffffffffffffffffffffffffffffffffffffffff1916817bffffffffffffffffffffffffffffffffffffffffffffffffffffffff191614611db4576040517f08c379a0000000000000000000000000000000000000000000000000000000008152600401611dab906138eb565b60405180910390fd5b505b505050505050565b60606000600167ffffffffffffffff811115611ddd57611ddc6122cd565b5b604051908082528060200260200182016040528015611e0b5781602001602082028036833780820191505090505b5090508281600081518110611e2357611e22612f38565b5b60200260200101818152505080915050919050565b611e578473ffffffffffffffffffffffffffffffffffffffff1661201f565b15612017578373ffffffffffffffffffffffffffffffffffffffff1663f23a6e6187878686866040518663ffffffff1660e01b8152600401611e9d95949392919061390b565b602060405180830381600087803b158015611eb757600080fd5b505af1925050508015611ee857506040513d601f19601f82011682018060405250810190611ee591906136f5565b60015b611f8e57611ef461372f565b806308c379a01415611f515750611f09613751565b80611f145750611f53565b806040517f08c379a0000000000000000000000000000000000000000000000000000000008152600401611f4891906124f6565b60405180910390fd5b505b6040517f08c379a0000000000000000000000000000000000000000000000000000000008152600401611f8590613859565b60405180910390fd5b63f23a6e6160e01b7bffffffffffffffffffffffffffffffffffffffffffffffffffffffff1916817bffffffffffffffffffffffffffffffffffffffffffffffffffffffff191614612015576040517f08c379a000000000000000000000000000000000000000000000000000000000815260040161200c906138eb565b60405180910390fd5b505b505050505050565b6000808273ffffffffffffffffffffffffffffffffffffffff163b119050919050565b82805461204e90612de2565b90600052602060002090601f01602090048101928261207057600085556120b7565b82601f1061208957805160ff19168380011785556120b7565b828001600101855582156120b7579182015b828111156120b657825182559160200191906001019061209b565b5b5090506120c491906120c8565b5090565b5b808211156120e15760008160009055506001016120c9565b5090565b6000604051905090565b600080fd5b600080fd5b600073ffffffffffffffffffffffffffffffffffffffff82169050919050565b6000612124826120f9565b9050919050565b61213481612119565b811461213f57600080fd5b50565b6000813590506121518161212b565b92915050565b6000819050919050565b61216a81612157565b811461217557600080fd5b50565b60008135905061218781612161565b92915050565b600080604083850312156121a4576121a36120ef565b5b60006121b285828601612142565b92505060206121c385828601612178565b9150509250929050565b6121d681612157565b82525050565b60006020820190506121f160008301846121cd565b92915050565b60007fffffffff0000000000000000000000000000000000000000000000000000000082169050919050565b61222c816121f7565b811461223757600080fd5b50565b60008135905061224981612223565b92915050565b600060208284031215612265576122646120ef565b5b60006122738482850161223a565b91505092915050565b60008115159050919050565b6122918161227c565b82525050565b60006020820190506122ac6000830184612288565b92915050565b600080fd5b600080fd5b6000601f19601f8301169050919050565b7f4e487b7100000000000000000000000000000000000000000000000000000000600052604160045260246000fd5b612305826122bc565b810181811067ffffffffffffffff82111715612324576123236122cd565b5b80604052505050565b60006123376120e5565b905061234382826122fc565b919050565b600067ffffffffffffffff821115612363576123626122cd565b5b61236c826122bc565b9050602081019050919050565b82818337600083830152505050565b600061239b61239684612348565b61232d565b9050828152602081018484840111156123b7576123b66122b7565b5b6123c2848285612379565b509392505050565b600082601f8301126123df576123de6122b2565b5b81356123ef848260208601612388565b91505092915050565b60006020828403121561240e5761240d6120ef565b5b600082013567ffffffffffffffff81111561242c5761242b6120f4565b5b612438848285016123ca565b91505092915050565b600060208284031215612457576124566120ef565b5b600061246584828501612178565b91505092915050565b600081519050919050565b600082825260208201905092915050565b60005b838110156124a857808201518184015260208101905061248d565b838111156124b7576000848401525b50505050565b60006124c88261246e565b6124d28185612479565b93506124e281856020860161248a565b6124eb816122bc565b840191505092915050565b6000602082019050818103600083015261251081846124bd565b905092915050565b600067ffffffffffffffff821115612533576125326122cd565b5b602082029050602081019050919050565b600080fd5b600061255c61255784612518565b61232d565b9050808382526020820190506020840283018581111561257f5761257e612544565b5b835b818110156125a857806125948882612178565b845260208401935050602081019050612581565b5050509392505050565b600082601f8301126125c7576125c66122b2565b5b81356125d7848260208601612549565b91505092915050565b600067ffffffffffffffff8211156125fb576125fa6122cd565b5b612604826122bc565b9050602081019050919050565b600061262461261f846125e0565b61232d565b9050828152602081018484840111156126405761263f6122b7565b5b61264b848285612379565b509392505050565b600082601f830112612668576126676122b2565b5b8135612678848260208601612611565b91505092915050565b6000806000806080858703121561269b5761269a6120ef565b5b60006126a987828801612142565b945050602085013567ffffffffffffffff8111156126ca576126c96120f4565b5b6126d6878288016125b2565b935050604085013567ffffffffffffffff8111156126f7576126f66120f4565b5b612703878288016125b2565b925050606085013567ffffffffffffffff811115612724576127236120f4565b5b61273087828801612653565b91505092959194509250565b600080600080600060a08688031215612758576127576120ef565b5b600061276688828901612142565b955050602061277788828901612142565b945050604086013567ffffffffffffffff811115612798576127976120f4565b5b6127a4888289016125b2565b935050606086013567ffffffffffffffff8111156127c5576127c46120f4565b5b6127d1888289016125b2565b925050608086013567ffffffffffffffff8111156127f2576127f16120f4565b5b6127fe88828901612653565b9150509295509295909350565b600067ffffffffffffffff821115612826576128256122cd565b5b602082029050602081019050919050565b600061284a6128458461280b565b61232d565b9050808382526020820190506020840283018581111561286d5761286c612544565b5b835b8181101561289657806128828882612142565b84526020840193505060208101905061286f565b5050509392505050565b600082601f8301126128b5576128b46122b2565b5b81356128c5848260208601612837565b91505092915050565b600080604083850312156128e5576128e46120ef565b5b600083013567ffffffffffffffff811115612903576129026120f4565b5b61290f858286016128a0565b925050602083013567ffffffffffffffff8111156129305761292f6120f4565b5b61293c858286016125b2565b9150509250929050565b600081519050919050565b600082825260208201905092915050565b6000819050602082019050919050565b61297b81612157565b82525050565b600061298d8383612972565b60208301905092915050565b6000602082019050919050565b60006129b182612946565b6129bb8185612951565b93506129c683612962565b8060005b838110156129f75781516129de8882612981565b97506129e983612999565b9250506001810190506129ca565b5085935050505092915050565b60006020820190508181036000830152612a1e81846129a6565b905092915050565b600080600060608486031215612a3f57612a3e6120ef565b5b6000612a4d86828701612142565b935050602084013567ffffffffffffffff811115612a6e57612a6d6120f4565b5b612a7a868287016125b2565b925050604084013567ffffffffffffffff811115612a9b57612a9a6120f4565b5b612aa7868287016125b2565b9150509250925092565b60008060008060808587031215612acb57612aca6120ef565b5b6000612ad987828801612142565b9450506020612aea87828801612178565b9350506040612afb87828801612178565b925050606085013567ffffffffffffffff811115612b1c57612b1b6120f4565b5b612b2887828801612653565b91505092959194509250565b612b3d81612119565b82525050565b6000602082019050612b586000830184612b34565b92915050565b612b678161227c565b8114612b7257600080fd5b50565b600081359050612b8481612b5e565b92915050565b60008060408385031215612ba157612ba06120ef565b5b6000612baf85828601612142565b9250506020612bc085828601612b75565b9150509250929050565b60008060408385031215612be157612be06120ef565b5b6000612bef85828601612142565b9250506020612c0085828601612142565b9150509250929050565b600080600080600060a08688031215612c2657612c256120ef565b5b6000612c3488828901612142565b9550506020612c4588828901612142565b9450506040612c5688828901612178565b9350506060612c6788828901612178565b925050608086013567ffffffffffffffff811115612c8857612c876120f4565b5b612c9488828901612653565b9150509295509295909350565b600060208284031215612cb757612cb66120ef565b5b6000612cc584828501612142565b91505092915050565b600080600060608486031215612ce757612ce66120ef565b5b6000612cf586828701612142565b9350506020612d0686828701612178565b9250506040612d1786828701612178565b9150509250925092565b7f455243313135353a2062616c616e636520717565727920666f7220746865207a60008201527f65726f2061646472657373000000000000000000000000000000000000000000602082015250565b6000612d7d602b83612479565b9150612d8882612d21565b604082019050919050565b60006020820190508181036000830152612dac81612d70565b9050919050565b7f4e487b7100000000000000000000000000000000000000000000000000000000600052602260045260246000fd5b60006002820490506001821680612dfa57607f821691505b60208210811415612e0e57612e0d612db3565b5b50919050565b7f455243313135353a207472616e736665722063616c6c6572206973206e6f742060008201527f6f776e6572206e6f7220617070726f7665640000000000000000000000000000602082015250565b6000612e70603283612479565b9150612e7b82612e14565b604082019050919050565b60006020820190508181036000830152612e9f81612e63565b9050919050565b7f455243313135353a206163636f756e747320616e6420696473206c656e67746860008201527f206d69736d617463680000000000000000000000000000000000000000000000602082015250565b6000612f02602983612479565b9150612f0d82612ea6565b604082019050919050565b60006020820190508181036000830152612f3181612ef5565b9050919050565b7f4e487b7100000000000000000000000000000000000000000000000000000000600052603260045260246000fd5b7f4e487b7100000000000000000000000000000000000000000000000000000000600052601160045260246000fd5b6000612fa182612157565b91507fffffffffffffffffffffffffffffffffffffffffffffffffffffffffffffffff821415612fd457612fd3612f67565b5b600182019050919050565b7f4f776e61626c653a2063616c6c6572206973206e6f7420746865206f776e6572600082015250565b6000613015602083612479565b915061302082612fdf565b602082019050919050565b6000602082019050818103600083015261304481613008565b9050919050565b7f455243313135353a2063616c6c6572206973206e6f74206f776e6572206e6f7260008201527f20617070726f7665640000000000000000000000000000000000000000000000602082015250565b60006130a7602983612479565b91506130b28261304b565b604082019050919050565b600060208201905081810360008301526130d68161309a565b9050919050565b7f4f776e61626c653a206e6577206f776e657220697320746865207a65726f206160008201527f6464726573730000000000000000000000000000000000000000000000000000602082015250565b6000613139602683612479565b9150613144826130dd565b604082019050919050565b600060208201905081810360008301526131688161312c565b9050919050565b7f455243313135353a206d696e7420746f20746865207a65726f2061646472657360008201527f7300000000000000000000000000000000000000000000000000000000000000602082015250565b60006131cb602183612479565b91506131d68261316f565b604082019050919050565b600060208201905081810360008301526131fa816131be565b9050919050565b7f455243313135353a2069647320616e6420616d6f756e7473206c656e6774682060008201527f6d69736d61746368000000000000000000000000000000000000000000000000602082015250565b600061325d602883612479565b915061326882613201565b604082019050919050565b6000602082019050818103600083015261328c81613250565b9050919050565b600061329e82612157565b91506132a983612157565b9250827fffffffffffffffffffffffffffffffffffffffffffffffffffffffffffffffff038211156132de576132dd612f67565b5b828201905092915050565b6000604082019050818103600083015261330381856129a6565b9050818103602083015261331781846129a6565b90509392505050565b7f455243313135353a207472616e7366657220746f20746865207a65726f20616460008201527f6472657373000000000000000000000000000000000000000000000000000000602082015250565b600061337c602583612479565b915061338782613320565b604082019050919050565b600060208201905081810360008301526133ab8161336f565b9050919050565b7f455243313135353a20696e73756666696369656e742062616c616e636520666f60008201527f72207472616e7366657200000000000000000000000000000000000000000000602082015250565b600061340e602a83612479565b9150613419826133b2565b604082019050919050565b6000602082019050818103600083015261343d81613401565b9050919050565b7f455243313135353a206275726e2066726f6d20746865207a65726f206164647260008201527f6573730000000000000000000000000000000000000000000000000000000000602082015250565b60006134a0602383612479565b91506134ab82613444565b604082019050919050565b600060208201905081810360008301526134cf81613493565b9050919050565b7f455243313135353a206275726e20616d6f756e7420657863656564732062616c60008201527f616e636500000000000000000000000000000000000000000000000000000000602082015250565b6000613532602483612479565b915061353d826134d6565b604082019050919050565b6000602082019050818103600083015261356181613525565b9050919050565b600060408201905061357d60008301856121cd565b61358a60208301846121cd565b9392505050565b7f455243313135353a2073657474696e6720617070726f76616c2073746174757360008201527f20666f722073656c660000000000000000000000000000000000000000000000602082015250565b60006135ed602983612479565b91506135f882613591565b604082019050919050565b6000602082019050818103600083015261361c816135e0565b9050919050565b600081519050919050565b600082825260208201905092915050565b600061364a82613623565b613654818561362e565b935061366481856020860161248a565b61366d816122bc565b840191505092915050565b600060a08201905061368d6000830188612b34565b61369a6020830187612b34565b81810360408301526136ac81866129a6565b905081810360608301526136c081856129a6565b905081810360808301526136d4818461363f565b90509695505050505050565b6000815190506136ef81612223565b92915050565b60006020828403121561370b5761370a6120ef565b5b6000613719848285016136e0565b91505092915050565b60008160e01c9050919050565b600060033d111561374e5760046000803e61374b600051613722565b90505b90565b600060443d1015613761576137e4565b6137696120e5565b60043d036004823e80513d602482011167ffffffffffffffff821117156137915750506137e4565b808201805167ffffffffffffffff8111156137af57505050506137e4565b80602083010160043d0385018111156137cc5750505050506137e4565b6137db826020018501866122fc565b82955050505050505b90565b7f455243313135353a207472616e7366657220746f206e6f6e204552433131353560008201527f526563656976657220696d706c656d656e746572000000000000000000000000602082015250565b6000613843603483612479565b915061384e826137e7565b604082019050919050565b6000602082019050818103600083015261387281613836565b9050919050565b7f455243313135353a204552433131353552656365697665722072656a6563746560008201527f6420746f6b656e73000000000000000000000000000000000000000000000000602082015250565b60006138d5602883612479565b91506138e082613879565b604082019050919050565b60006020820190508181036000830152613904816138c8565b9050919050565b600060a0820190506139206000830188612b34565b61392d6020830187612b34565b61393a60408301866121cd565b61394760608301856121cd565b8181036080830152613959818461363f565b9050969550505050505056fea2646970667358221220b365252853ede89c84353480348d834ffab4bc30a81d1518affbae122c3e4c7a64736f6c63430008080033",
  "devdoc": {
    "kind": "dev",
    "methods": {
      "balanceOf(address,uint256)": {
        "details": "See {IERC1155-balanceOf}. Requirements: - `account` cannot be the zero address."
      },
      "balanceOfBatch(address[],uint256[])": {
        "details": "See {IERC1155-balanceOfBatch}. Requirements: - `accounts` and `ids` must have the same length."
      },
      "isApprovedForAll(address,address)": {
        "details": "See {IERC1155-isApprovedForAll}."
      },
      "owner()": {
        "details": "Returns the address of the current owner."
      },
      "renounceOwnership()": {
        "details": "Leaves the contract without owner. It will not be possible to call `onlyOwner` functions anymore. Can only be called by the current owner. NOTE: Renouncing ownership will leave the contract without an owner, thereby removing any functionality that is only available to the owner."
      },
      "safeBatchTransferFrom(address,address,uint256[],uint256[],bytes)": {
        "details": "See {IERC1155-safeBatchTransferFrom}."
      },
      "safeTransferFrom(address,address,uint256,uint256,bytes)": {
        "details": "See {IERC1155-safeTransferFrom}."
      },
      "setApprovalForAll(address,bool)": {
        "details": "See {IERC1155-setApprovalForAll}."
      },
      "supportsInterface(bytes4)": {
        "details": "See {IERC165-supportsInterface}."
      },
      "transferOwnership(address)": {
        "details": "Transfers ownership of the contract to a new account (`newOwner`). Can only be called by the current owner."
      },
      "uri(uint256)": {
        "details": "See {IERC1155MetadataURI-uri}. This implementation returns the same URI for *all* token types. It relies on the token type ID substitution mechanism https://eips.ethereum.org/EIPS/eip-1155#metadata[defined in the EIP]. Clients calling this function must replace the `\\{id\\}` substring with the actual token type ID."
      }
    },
    "title": "ERC1155Mock This mock just publicizes internal functions for testing purposes",
    "version": 1
  },
  "userdoc": {
    "kind": "user",
    "methods": {},
    "version": 1
  },
  "storageLayout": {
    "storage": [
      {
        "astId": 130,
        "contract": "contracts/ERC1155Mock.sol:ERC1155Mock",
        "label": "_balances",
        "offset": 0,
        "slot": "0",
        "type": "t_mapping(t_uint256,t_mapping(t_address,t_uint256))"
      },
      {
        "astId": 136,
        "contract": "contracts/ERC1155Mock.sol:ERC1155Mock",
        "label": "_operatorApprovals",
        "offset": 0,
        "slot": "1",
        "type": "t_mapping(t_address,t_mapping(t_address,t_bool))"
      },
      {
        "astId": 138,
        "contract": "contracts/ERC1155Mock.sol:ERC1155Mock",
        "label": "_uri",
        "offset": 0,
        "slot": "2",
        "type": "t_string_storage"
      },
      {
        "astId": 7,
        "contract": "contracts/ERC1155Mock.sol:ERC1155Mock",
        "label": "_owner",
        "offset": 0,
        "slot": "3",
        "type": "t_address"
      }
    ],
    "types": {
      "t_address": {
        "encoding": "inplace",
        "label": "address",
        "numberOfBytes": "20"
      },
      "t_bool": {
        "encoding": "inplace",
        "label": "bool",
        "numberOfBytes": "1"
      },
      "t_mapping(t_address,t_bool)": {
        "encoding": "mapping",
        "key": "t_address",
        "label": "mapping(address => bool)",
        "numberOfBytes": "32",
        "value": "t_bool"
      },
      "t_mapping(t_address,t_mapping(t_address,t_bool))": {
        "encoding": "mapping",
        "key": "t_address",
        "label": "mapping(address => mapping(address => bool))",
        "numberOfBytes": "32",
        "value": "t_mapping(t_address,t_bool)"
      },
      "t_mapping(t_address,t_uint256)": {
        "encoding": "mapping",
        "key": "t_address",
        "label": "mapping(address => uint256)",
        "numberOfBytes": "32",
        "value": "t_uint256"
      },
      "t_mapping(t_uint256,t_mapping(t_address,t_uint256))": {
        "encoding": "mapping",
        "key": "t_uint256",
        "label": "mapping(uint256 => mapping(address => uint256))",
        "numberOfBytes": "32",
        "value": "t_mapping(t_address,t_uint256)"
      },
      "t_string_storage": {
        "encoding": "bytes",
        "label": "string",
        "numberOfBytes": "32"
      },
      "t_uint256": {
        "encoding": "inplace",
        "label": "uint256",
        "numberOfBytes": "32"
      }
    }
  }
}