{
  "address": "0xB7f8BC63BbcaD18155201308C8f3540b07f84F5e",
  "abi": [
    {
      "inputs": [
        {
          "internalType": "contract IERC1155",
          "name": "ERC1155Address",
          "type": "address"
        }
      ],
      "stateMutability": "nonpayable",
      "type": "constructor"
    },
    {
      "inputs": [
        {
          "internalType": "address",
          "name": "",
          "type": "address"
        },
        {
          "internalType": "address",
          "name": "",
          "type": "address"
        },
        {
          "internalType": "uint256[]",
          "name": "",
          "type": "uint256[]"
        },
        {
          "internalType": "uint256[]",
          "name": "",
          "type": "uint256[]"
        },
        {
          "internalType": "bytes",
          "name": "",
          "type": "bytes"
        }
      ],
      "name": "onERC1155BatchReceived",
      "outputs": [
        {
          "internalType": "bytes4",
          "name": "",
          "type": "bytes4"
        }
      ],
      "stateMutability": "nonpayable",
      "type": "function"
    },
    {
      "inputs": [
        {
          "internalType": "address",
          "name": "",
          "type": "address"
        },
        {
          "internalType": "address",
          "name": "",
          "type": "address"
        },
        {
          "internalType": "uint256",
          "name": "",
          "type": "uint256"
        },
        {
          "internalType": "uint256",
          "name": "",
          "type": "uint256"
        },
        {
          "internalType": "bytes",
          "name": "",
          "type": "bytes"
        }
      ],
      "name": "onERC1155Received",
      "outputs": [
        {
          "internalType": "bytes4",
          "name": "",
          "type": "bytes4"
        }
      ],
      "stateMutability": "nonpayable",
      "type": "function"
    },
    {
      "inputs": [
        {
          "internalType": "bytes4",
          "name": "interfaceId",
          "type": "bytes4"
        }
      ],
      "name": "supportsInterface",
      "outputs": [
        {
          "internalType": "bool",
          "name": "",
          "type": "bool"
        }
      ],
      "stateMutability": "view",
      "type": "function"
    },
    {
      "inputs": [
        {
          "internalType": "uint256",
          "name": "_itemId",
          "type": "uint256"
        },
        {
          "internalType": "uint256",
          "name": "_amount",
          "type": "uint256"
        },
        {
          "internalType": "address",
          "name": "_from",
          "type": "address"
        },
        {
          "internalType": "address",
          "name": "_to",
          "type": "address"
        }
      ],
      "name": "transferItems",
      "outputs": [],
      "stateMutability": "nonpayable",
      "type": "function"
    }
  ],
  "transactionHash": "0x62e685fafe9441ce6aed49f4118f1d70ed31b8b5b90d9d811410fad79c471f80",
  "args": [
    "0x610178dA211FEF7D417bC0e6FeD39F05609AD788"
  ],
  "numDeployments": 1,
  "solcInputHash": "f4037e3906bede6d8d4f247ad368c37f",
  "bytecode": "0x608060405234801561001057600080fd5b50604051610b37380380610b37833981810160405281019061003291906100ed565b806000806101000a81548173ffffffffffffffffffffffffffffffffffffffff021916908373ffffffffffffffffffffffffffffffffffffffff1602179055505061011a565b600080fd5b600073ffffffffffffffffffffffffffffffffffffffff82169050919050565b60006100a88261007d565b9050919050565b60006100ba8261009d565b9050919050565b6100ca816100af565b81146100d557600080fd5b50565b6000815190506100e7816100c1565b92915050565b60006020828403121561010357610102610078565b5b6000610111848285016100d8565b91505092915050565b610a0e806101296000396000f3fe608060405234801561001057600080fd5b506004361061004c5760003560e01c806301ffc9a71461005157806338577f0014610081578063bc197c811461009d578063f23a6e61146100cd575b600080fd5b61006b600480360381019061006691906103c4565b6100fd565b604051610078919061040c565b60405180910390f35b61009b600480360381019061009691906104bb565b610177565b005b6100b760048036038101906100b29190610730565b6102c4565b6040516100c4919061080e565b60405180910390f35b6100e760048036038101906100e29190610829565b6102d9565b6040516100f4919061080e565b60405180910390f35b60007f4e2312e0000000000000000000000000000000000000000000000000000000007bffffffffffffffffffffffffffffffffffffffffffffffffffffffff1916827bffffffffffffffffffffffffffffffffffffffffffffffffffffffff19161480610170575061016f826102ee565b5b9050919050565b8260008054906101000a900473ffffffffffffffffffffffffffffffffffffffff1673ffffffffffffffffffffffffffffffffffffffff1662fdd58e84876040518363ffffffff1660e01b81526004016101d29291906108de565b60206040518083038186803b1580156101ea57600080fd5b505afa1580156101fe573d6000803e3d6000fd5b505050506040513d601f19601f82011682018060405250810190610222919061091c565b101561022d57600080fd5b60008054906101000a900473ffffffffffffffffffffffffffffffffffffffff1673ffffffffffffffffffffffffffffffffffffffff1663f242432a838387876040518563ffffffff1660e01b815260040161028c9493929190610980565b600060405180830381600087803b1580156102a657600080fd5b505af11580156102ba573d6000803e3d6000fd5b5050505050505050565b600063bc197c8160e01b905095945050505050565b600063f23a6e6160e01b905095945050505050565b60007f01ffc9a7000000000000000000000000000000000000000000000000000000007bffffffffffffffffffffffffffffffffffffffffffffffffffffffff1916827bffffffffffffffffffffffffffffffffffffffffffffffffffffffff1916149050919050565b6000604051905090565b600080fd5b600080fd5b60007fffffffff0000000000000000000000000000000000000000000000000000000082169050919050565b6103a18161036c565b81146103ac57600080fd5b50565b6000813590506103be81610398565b92915050565b6000602082840312156103da576103d9610362565b5b60006103e8848285016103af565b91505092915050565b60008115159050919050565b610406816103f1565b82525050565b600060208201905061042160008301846103fd565b92915050565b6000819050919050565b61043a81610427565b811461044557600080fd5b50565b60008135905061045781610431565b92915050565b600073ffffffffffffffffffffffffffffffffffffffff82169050919050565b60006104888261045d565b9050919050565b6104988161047d565b81146104a357600080fd5b50565b6000813590506104b58161048f565b92915050565b600080600080608085870312156104d5576104d4610362565b5b60006104e387828801610448565b94505060206104f487828801610448565b9350506040610505878288016104a6565b9250506060610516878288016104a6565b91505092959194509250565b600080fd5b6000601f19601f8301169050919050565b7f4e487b7100000000000000000000000000000000000000000000000000000000600052604160045260246000fd5b61057082610527565b810181811067ffffffffffffffff8211171561058f5761058e610538565b5b80604052505050565b60006105a2610358565b90506105ae8282610567565b919050565b600067ffffffffffffffff8211156105ce576105cd610538565b5b602082029050602081019050919050565b600080fd5b60006105f76105f2846105b3565b610598565b9050808382526020820190506020840283018581111561061a576106196105df565b5b835b81811015610643578061062f8882610448565b84526020840193505060208101905061061c565b5050509392505050565b600082601f83011261066257610661610522565b5b81356106728482602086016105e4565b91505092915050565b600080fd5b600067ffffffffffffffff82111561069b5761069a610538565b5b6106a482610527565b9050602081019050919050565b82818337600083830152505050565b60006106d36106ce84610680565b610598565b9050828152602081018484840111156106ef576106ee61067b565b5b6106fa8482856106b1565b509392505050565b600082601f83011261071757610716610522565b5b81356107278482602086016106c0565b91505092915050565b600080600080600060a0868803121561074c5761074b610362565b5b600061075a888289016104a6565b955050602061076b888289016104a6565b945050604086013567ffffffffffffffff81111561078c5761078b610367565b5b6107988882890161064d565b935050606086013567ffffffffffffffff8111156107b9576107b8610367565b5b6107c58882890161064d565b925050608086013567ffffffffffffffff8111156107e6576107e5610367565b5b6107f288828901610702565b9150509295509295909350565b6108088161036c565b82525050565b600060208201905061082360008301846107ff565b92915050565b600080600080600060a0868803121561084557610844610362565b5b6000610853888289016104a6565b9550506020610864888289016104a6565b945050604061087588828901610448565b935050606061088688828901610448565b925050608086013567ffffffffffffffff8111156108a7576108a6610367565b5b6108b388828901610702565b9150509295509295909350565b6108c98161047d565b82525050565b6108d881610427565b82525050565b60006040820190506108f360008301856108c0565b61090060208301846108cf565b9392505050565b60008151905061091681610431565b92915050565b60006020828403121561093257610931610362565b5b600061094084828501610907565b91505092915050565b600082825260208201905092915050565b50565b600061096a600083610949565b91506109758261095a565b600082019050919050565b600060a08201905061099560008301876108c0565b6109a260208301866108c0565b6109af60408301856108cf565b6109bc60608301846108cf565b81810360808301526109cd8161095d565b90509594505050505056fea2646970667358221220fa5ed064cc6a29ef7b4081ef62a8763fdbf70b4b1c0e1272510395a6b6826c2d64736f6c63430008080033",
  "devdoc": {
    "kind": "dev",
    "methods": {
      "supportsInterface(bytes4)": {
        "details": "See {IERC165-supportsInterface}."
      }
    },
    "version": 1
  },
  "userdoc": {
    "kind": "user",
    "methods": {},
    "version": 1
  },
  "storageLayout": {
    "storage": [
      {
        "astId": 420,
        "contract": "contracts/Holder.sol:Holder",
        "label": "_IERC1155",
        "offset": 0,
        "slot": "0",
        "type": "t_contract(IERC1155)226"
      }
    ],
    "types": {
      "t_contract(IERC1155)226": {
        "encoding": "inplace",
        "label": "contract IERC1155",
        "numberOfBytes": "20"
      }
    }
  }
}